S016000047726F75705F61737369676E5F432E737265637B
S11300000C942A000C9434000C9434000C943400A6
S11300100C9434000C9434000C9434000C9434008C
S11300200C9434000C9434000C9434000C9434007C
S11300300C9434000C9434000C9434000C9434006C
S11300400C9434000C9434000C9434000C9434005C
S11300500C94340011241FBECFE5D8E0DEBFCDBF21
S11300600E9436000C949D000C94000084B38860B8
S113007084BB32E1932F80E00BC0992324F425B391
S1130080286025BB03C025B3277F25BB990F8F5F4D
S1130090883098F3305F323669F795B380E4892766
S11300A085BB2FEF8EE994E2215080409040E1F728
S11300B000C000003051932F80E00BC0992324F43A
S11300C025B3286025BB03C025B3277F25BB990F23
S11300D08F5F883098F3323569F495B380E48927CB
S11300E085BB2FEF8EE994E2215080409040E1F7E8
S11300F000C000003231F1F6305F932F80E00BC076
S1130100992324F425B3286025BB03C025B3277F96
S113011025BB990F8F5F883098F3323569F795B313
S113012080E4892785BB2FEF8EE994E2215080403B
S11101309040E1F700C000009CCFF894FFCF90
S9030000FC
