:020000020000FC
:10000000B8E0BEBFBFE5BDBFAB9AB0E4B5BB00E092
:1000100010E125E052E0510F050F38E0000F10F419
:10002000AB9A01C0AB983A95C9F72A95A1F7AFEF03
:100030000E944B00A0E00E94570025E000E0050F61
:1000400038E0000F10F4AB9A01C0AB983A95C9F7AD
:1000500042E5541731F4AFEF0E944B00A0E00E943C
:100060005700511B2A9559F700E012E124E052E0B5
:10007000510F050F38E0000F10F4AB9A01C0AB9898
:100080003A95C9F72A95A1F7AFEF0E944B000E945D
:100090005700A0E0BCCF70E388EC9AEF00000000AE
:1000A0009A95E1F78A95C9F77A95B1F70895A5B3BE
:0C00B000AB2311F4AE9A0895AE980895A9
:00000001FF
